:100000000C9446000C9458000C9458000C94580022
:100010000C9458000C9458000C9458000C94580000
:100020000C9458000C9458000C9458000C945800F0
:100030000C9458000C9458000C9458000C945A00DE
:100040000C947F000C9458000C9458000C945800A9
:100050000C9458000C9458000C9458000C945800C0
:100060000C9458000C9458000C9458000C945800B0
:100070000C9458000C9458000C9458000C945800A0
:100080000C9458000C9458000C94580011241FBE76
:10009000CFEFD0E1DEBFCDBF21E0A0E0B1E001C0F5
:1000A0001D92A730B207E1F70E9495000C94CC0096
:1000B0000C9400001F920F920FB60F9211248F9391
:1000C0009F93AF93BF938091030190910401A091FE
:1000D0000501B09106010196A11DB11D8093030198
:1000E00090930401A0930501B0930601BF91AF91D5
:1000F0009F918F910F900FBE0F901F9018951F9298
:100100000F920FB60F9211248F931092020110924A
:10011000010183B78A7F83BF81E0809300018F91C3
:100120000F900FBE0F901F901895BD9A8FB58268E3
:100130008FBD8EB58B618EBD87E893E197BD86BD7F
:100140008AEF90E09BBD8ABD4AEF50E027E731E09F
:1001500084EF91E05BBD4ABD6FEF73EDE0E361506A
:100160007040E040E1F700C000003BBD2ABD6FEFEA
:1001700073EDE0E361507040E040E1F700C0000043
:100180009BBD8ABD6FEF73EDE0E361507040E040CE
:0C019000E1F700C00000DECFF894FFCFC4
:00000001FF
