:100000000C9446000C9450000C9450000C9450003A
:100010000C9450000C9450000C9450000C94500020
:100020000C9450000C9450000C9450000C94500010
:100030000C9450000C9450000C9450000C94500000
:100040000C9450000C9450000C9450000C945000F0
:100050000C9450000C9450000C9450000C945000E0
:100060000C9450000C9450000C9450000C945000D0
:100070000C9450000C9450000C9450000C945000C0
:100080000C9450000C9450000C94500011241FBE8E
:10009000CFEFD0E1DEBFCDBF0E9452000C946900CB
:1000A0000C9400008FEF81BB82BB2FEF33ED90E308
:1000B000215030409040E1F700C0000012BA2FEF0D
:1000C00033ED90E3215030409040E1F700C0000054
:0600D000EBCFF894FFCF16
:00000001FF
