:100000000C9446000C9450000C9450000C9450003A
:100010000C9450000C9450000C9450000C94500020
:100020000C9450000C9450000C9450000C94500010
:100030000C9450000C9450000C9450000C94500000
:100040000C9450000C9450000C9450000C945000F0
:100050000C9450000C9450000C9450000C945000E0
:100060000C9450000C9450000C9450000C945000D0
:100070000C9450000C9450000C9450000C945000C0
:100080000C9450000C9450000C94500011241FBE8E
:10009000CFEFD0E1DEBFCDBF0E9457000C947700B8
:1000A0000C940000BC9A83B78E6683BF08951092AB
:1000B00090008FEC89B9599A579A8AB188618AB9A8
:1000C0000E94520011BE2FE79FEF5F9BFECF8CB1C5
:1000D0005D9BFECF8CB9803311F411BEF6CF813316
:1000E00011F421BFF2CF823381F791BFEECFF894A4
:0200F000FFCF40
:00000001FF
