:100000000C9446000C9450000C9450000C9450003A
:100010000C9450000C9450000C9450000C94500020
:100020000C9450000C9450000C9450000C94500010
:100030000C9450000C9450000C9450000C94500000
:100040000C9450000C9450000C9450000C945000F0
:100050000C9450000C9450000C9450000C945000E0
:100060000C9450000C9450000C9450000C945000D0
:100070000C9450000C9450000C9450000C945000C0
:100080000C9450000C9450000C94500011241FBE8E
:10009000CFEFD0E1DEBFCDBF0E947E000C94CC003C
:1000A0000C940000FC01A281B3819C918581448164
:1000B00021E030E001C0220F4A95EAF7922369F46B
:1000C0008130D1F42FEF30E792E021503040904062
:1000D000E1F700C000001582089581110DC02FEFD7
:1000E00030E782E0215030408040E1F700C000005E
:1000F00081E0858382E0089580E00895CF93DF93C7
:10010000CDB7DEB762970FB6F894DEBF0FBECDBF96
:100110008FEF81BB44E650E05E874D8723E630E0F9
:10012000388B2F8782E0898B81E08A8B90916400E5
:100130009B7F9093640058874F833A87298793E089
:100140009B878C8790916400977F909364005A837B
:1001500049833C832B8394E09D838E83809164004C
:100160008F7E809364001FEFCE010D960E94520097
:10017000823009F412BBCE0107960E9452008230F1
:1001800009F412BACE0101960E945200823061F742
:0C01900082B3809582BBE8CFF894FFCFCB
:00000001FF
