:100000000C9446000C9450000C9450000C9450003A
:100010000C9450000C9450000C9450000C94500020
:100020000C9450000C9450000C9450000C94500010
:100030000C9450000C9450000C9450000C94500000
:100040000C9450000C9450000C9450000C945000F0
:100050000C9450000C9450000C9450000C945000E0
:100060000C9450000C9450000C9450000C945000D0
:100070000C9450000C9450000C9450000C945000C0
:100080000C9450000C9450000C94500011241FBE8E
:10009000CFEFD0E1DEBFCDBF0E9452000C949300A1
:1000A0000C9400008FEF81BB809164008F7E809361
:1000B000640080916400877F809364008091640075
:1000C000877F809364004FEF31E08091630082FF6F
:1000D00028C012BA8091630083FDF7CF32BB2FEFA7
:1000E00053EC89E0215050408040E1F700C000000F
:1000F00097E022B382B3221F2227221F880F822B70
:1001000082BB2FEF53EC89E0215050408040E1F753
:1001100000C000008091630082FFD7CF915049F763
:0A012000D4CF42BBD7CFF894FFCF35
:00000001FF
