:100000000C9446000C9450000C9450000C9450003A
:100010000C9450000C9450000C9450000C94500020
:100020000C9450000C9450000C9450000C94500010
:100030000C9450000C9450000C9450000C94500000
:100040000C9450000C9450000C9450000C945000F0
:100050000C9450000C9450000C9450000C945000E0
:100060000C9450000C9450000C9450000C945000D0
:100070000C9450000C9450000C9450000C945000C0
:100080000C9450000C9450000C94500011241FBE8E
:10009000CFEFD0E1DEBFCDBF0E9452000C948A00AA
:1000A0000C9400008FEF81BB48E050E060E170E00D
:1000B00030E020E0FA01E21BF30BCB01022E01C07D
:1000C000880F0A94EAF7DB01022E02C0B595A795C6
:1000D0000A94E2F78A2BDA010E2E02C0B595A79595
:1000E0000A94E2F78A2BDA0102C0AA0FBB1FEA9535
:1000F000E2F78A2B82BBBFEFE9E688E1B150E0402E
:100100008040E1F700C000002F5F3F4F28303105ED
:0801100089F6CECFF894FFCF71
:00000001FF
