:100000000C9446000C9450000C9450000C9450003A
:100010000C9450000C9450000C9450000C946A0006
:100020000C9452000C9450000C9450000C9450000E
:100030000C9450000C9450000C9450000C94500000
:100040000C9450000C9450000C9450000C945000F0
:100050000C9450000C9450000C9450000C945000E0
:100060000C9450000C9450000C9450000C945000D0
:100070000C9450000C9450000C9450000C945000C0
:100080000C9450000C9450000C94500011241FBE8E
:10009000CFEFD0E1DEBFCDBF0E947C000C94880082
:1000A0000C9400001F920F920FB60F9211248F93A1
:1000B0009F938FEF81BB92B382B3991F9927991FAA
:1000C000880F892B82BB9F918F910F900FBE0F904D
:1000D0001F9018951F920F920FB60F9211248F93B5
:1000E0009F9382B393E0892782BB9F918F910F905A
:1000F0000FBE0F901F90189578948AB7806E8ABFB4
:1001000089B7806C89BF8FEF81BB12BA12B8FFCF5D
:04011000F894FFCF91
:00000001FF
