:100000000C9446000C945D000C945D000C945D0013
:100010000C945D000C945D000C945D000C945D00EC
:100020000C945D000C945D000C945D000C945D00DC
:100030000C945D000C945D000C945D000C945D00CC
:100040000C945D000C945D000C945D000C945D00BC
:100050000C945D000C945D000C945D000C945D00AC
:100060000C945D000C945D000C945D000C945D009C
:100070000C945D000C945D000C945D000C945D008C
:100080000C945D000C945D000C945D0011241FBE67
:10009000CFEFD0E1DEBFCDBF11E0A0E0B1E0E4E7FB
:1000A000F1E000E00BBF02C007900D92AA30B1074B
:1000B000D9F70E945F000C94B8000C940000CF9315
:1000C000DF93CDB7DEB72A970FB6F894DEBF0FBE29
:1000D000CDBF8FEF87BB84BB15BA8AE0E0E0F1E0CB
:1000E000DE01119601900D928A95E1F790E080E093
:1000F0002AE030E0E1E0F0E0EC0FFD1FE80FF91F2F
:10010000408148BB0196B9010E9490004FEF53EC2B
:1001100069E0415050406040E1F700C00000EACF84
:1001200097FB072E16F4009407D077FD09D00E94A4
:10013000A40007FC05D03EF4909581959F4F08954B
:10014000709561957F4F0895AA1BBB1B51E107C0B5
:10015000AA1FBB1FA617B70710F0A61BB70B881F57
:10016000991F5A95A9F780959095BC01CD010895E6
:04017000F894FFCF31
:0A0174003F065B4F666D7D277F6735
:00000001FF
