:100000000C9446000C9465000C9465000C946500FB
:100010000C9465000C9465000C9465000C946500CC
:100020000C9465000C9465000C9465000C946500BC
:100030000C9465000C9465000C9465000C94DE0033
:100040000C9403010C9465000C9465000C946500FD
:100050000C9465000C9465000C9465000C9465008C
:100060000C9465000C9465000C9465000C9465007C
:100070000C9465000C9465000C9465000C9465006C
:100080000C9465000C9465000C94650011241FBE4F
:10009000CFEFD0E1DEBFCDBF11E0A0E0B1E0EEECEC
:1000A000F2E000E00BBF02C007900D92A831B1074B
:1000B000D9F721E0A8E1B1E001C01D92A032B2075A
:1000C000E1F70E9419010C9465010C94000094EA78
:1000D000909374009091740097FFFCCF9EE49093EE
:1000E000730094E8909374009091740097FFFCCF94
:1000F0008093730084E8809374008091740087FF7C
:10010000FCCF84E9809374000895CF93C0911B01C4
:10011000CB7F8C2F0E9467008C2F84600E94670029
:10012000C0931B018C2F0E9467008FEF98E101970D
:10013000F1F700C00000CF910895CF93DF93C82F4F
:1001400090911B019F70807F982B90931B010E94C0
:10015000850080911B018F7090E1C99FE0011124FF
:100160008C2B80931B01DF91CF910C9485000F9312
:100170001F93CF938C01C0E02C2F30E0F801E20FE9
:10018000F31F8081482F082E000C550B24173507CC
:1001900024F0CF911F910F91089590911B019D7FA5
:1001A000916090931B010E949D00CF5FE5CF9091DD
:1001B0001B019C7F90931B010C949D001F920F923A
:1001C0000FB60F9211248F939F93AF93BF9380919B
:1001D0001C0190911D01A0911E01B0911F0101967B
:1001E000A11DB11D80931C0190931D01A0931E01C0
:1001F000B0931F01BF91AF919F918F910F900FBE50
:100200000F901F9018951F920F920FB60F92112406
:100210008F9310921A011092190183B78A7F83BFBE
:1002200081E0809318018F910F900FBE0F901F9067
:10023000189581B3836081BB88E4809370002FEFB1
:1002400089EF90E0215080409040E1F700C000002D
:1002500083E00E94D7008FE19EE40197F1F700C090
:10026000000083E00E94D7008FE19EE40197F1F740
:1002700000C0000083E00E94D70082E00E94D70007
:1002800088E20E94D70088E00E94D70081E00E94A7
:10029000D7008CE00E94D70086E00E94D7008091B2
:1002A0001B01886080931B010E94670080E80E9408
:1002B000D70080E091E00E94B70080EC0E94D70058
:0E02C0008AE091E00E94B700FFCFF894FFCFD4
:1002CE0048656C6C6F206932630048656C6C6F20FA
:0802DE00693263204C43440027
:00000001FF
